{"abi":[{"type":"constructor","inputs":[{"name":"registry","type":"address","internalType":"address"}],"stateMutability":"nonpayable"},{"type":"function","name":"calcAddress","inputs":[{"name":"initCode","type":"bytes","internalType":"bytes"},{"name":"salt","type":"bytes32","internalType":"bytes32"}],"outputs":[{"name":"targetDeploymentAddress","type":"address","internalType":"address"}],"stateMutability":"view"},{"type":"function","name":"deployInitRegister","inputs":[{"name":"deployment","type":"tuple","internalType":"struct IFactoryWithInit.Deployment","components":[{"name":"salt","type":"bytes32","internalType":"bytes32"},{"name":"initCode","type":"bytes","internalType":"bytes"},{"name":"initCall","type":"bytes","internalType":"bytes"}]},{"name":"registryData","type":"tuple","internalType":"struct IFactoryWithInit.RegistryData","components":[{"name":"resolverUID","type":"bytes32","internalType":"bytes32"},{"name":"metadata","type":"bytes","internalType":"bytes"},{"name":"resolverContext","type":"bytes","internalType":"bytes"}]}],"outputs":[{"name":"deploymentAddress","type":"address","internalType":"address"}],"stateMutability":"payable"},{"type":"event","name":"DeployedAndInitialized","inputs":[{"name":"addr","type":"address","indexed":true,"internalType":"address"},{"name":"salt","type":"bytes32","indexed":true,"internalType":"bytes32"}],"anonymous":false},{"type":"error","name":"InitializationFailed","inputs":[]},{"type":"error","name":"InvalidAddress","inputs":[]},{"type":"error","name":"InvalidSalt","inputs":[]}],"bytecode":{"object":"0x60a0604052348015600f57600080fd5b50604051610660380380610660833981016040819052602c91603c565b6001600160a01b0316608052606a565b600060208284031215604d57600080fd5b81516001600160a01b0381168114606357600080fd5b9392505050565b6080516105db61008560003960006101ed01526105db6000f3fe6080604052600436106100295760003560e01c80631d036bd41461002e5780639c8071181461005d575b600080fd5b61004161003c36600461036a565b61007d565b6040516001600160a01b03909116815260200160405180910390f35b34801561006957600080fd5b506100416100783660046103e9565b6102c3565b60008235606081901c33148015906100a357506bffffffffffffffffffffffff19811615155b156100c1576040516381e69d9b60e01b815260040160405180910390fd5b60006100d060208601866104a4565b8080601f0160208091040260200160405190810160405280939291908181526020018383808284376000920182905250939450508735929150610115905083836102c3565b905082602001835183818334f596505050806001600160a01b0316856001600160a01b0316146101585760405163e6c4247b60e01b815260040160405180910390fd5b60006001600160a01b03861661017160408a018a6104a4565b60405161017f9291906104f2565b6000604051808303816000865af19150503d80600081146101bc576040519150601f19603f3d011682016040523d82523d6000602084013e6101c1565b606091505b50509050806101e357604051630337323560e31b815260040160405180910390fd5b6001600160a01b037f0000000000000000000000000000000000000000000000000000000000000000166388dc678d88358861022260208c018c6104a4565b61022f60408e018e6104a4565b6040518763ffffffff1660e01b81526004016102509695949392919061052b565b600060405180830381600087803b15801561026a57600080fd5b505af115801561027e573d6000803e3d6000fd5b50506040518592506001600160a01b03891691507fe4386806cdff31d3f00d70fc49f0b317d17cf016df10838899314c798b65ea5490600090a3505050505092915050565b60003082846040516020016102d89190610576565b60405160208183030381529060405280519060200120604051602001610333939291906001600160f81b0319815260609390931b6bffffffffffffffffffffffff191660018401526015830191909152603582015260550190565b60408051601f1981840301815291905280516020909101209392505050565b60006060828403121561036457600080fd5b50919050565b6000806040838503121561037d57600080fd5b823567ffffffffffffffff81111561039457600080fd5b6103a085828601610352565b925050602083013567ffffffffffffffff8111156103bd57600080fd5b6103c985828601610352565b9150509250929050565b634e487b7160e01b600052604160045260246000fd5b600080604083850312156103fc57600080fd5b823567ffffffffffffffff81111561041357600080fd5b8301601f8101851361042457600080fd5b803567ffffffffffffffff81111561043e5761043e6103d3565b604051601f8201601f19908116603f0116810167ffffffffffffffff8111828210171561046d5761046d6103d3565b60405281815282820160200187101561048557600080fd5b8160208401602083013760006020928201830152969401359450505050565b6000808335601e198436030181126104bb57600080fd5b83018035915067ffffffffffffffff8211156104d657600080fd5b6020019150368190038213156104eb57600080fd5b9250929050565b8183823760009101908152919050565b81835281816020850137506000828201602090810191909152601f909101601f19169091010190565b8681526001600160a01b03861660208201526080604082018190526000906105569083018688610502565b8281036060840152610569818587610502565b9998505050505050505050565b6000825160005b81811015610597576020818601810151858301520161057d565b50600092019182525091905056fea2646970667358221220be5c4a0b2ef7c6b1e2c821b57f16bc4886ec658b7df9a804bb3c0d13bd8cef0b64736f6c634300081c0033","linkReferences":{}},"methodIdentifiers":{"calcAddress(bytes,bytes32)":"9c807118","deployInitRegister((bytes32,bytes,bytes),(bytes32,bytes,bytes))":"1d036bd4"},"id":24}